{
  "contractName": "Login",
  "abi": [
    {
      "anonymous": false,
      "inputs": [
        {
          "indexed": false,
          "name": "sender",
          "type": "address"
        },
        {
          "indexed": false,
          "name": "challenge",
          "type": "string"
        }
      ],
      "name": "LoginAttempt",
      "type": "event"
    },
    {
      "constant": false,
      "inputs": [
        {
          "name": "challenge",
          "type": "string"
        }
      ],
      "name": "login",
      "outputs": [],
      "payable": false,
      "stateMutability": "nonpayable",
      "type": "function"
    },
    {
      "constant": true,
      "inputs": [],
      "name": "whoami",
      "outputs": [
        {
          "name": "",
          "type": "address"
        }
      ],
      "payable": false,
      "stateMutability": "view",
      "type": "function"
    }
  ],
  "bytecode": "0x608060405234801561001057600080fd5b50610218806100206000396000f30060806040526004361061004c576000357c0100000000000000000000000000000000000000000000000000000000900463ffffffff1680633a7d280c14610051578063b3b36bb3146100ba575b600080fd5b34801561005d57600080fd5b506100b8600480360381019080803590602001908201803590602001908080601f0160208091040260200160405190810160405280939291908181526020018383808284378201915050505050509192919290505050610111565b005b3480156100c657600080fd5b506100cf6101e4565b604051808273ffffffffffffffffffffffffffffffffffffffff1673ffffffffffffffffffffffffffffffffffffffff16815260200191505060405180910390f35b7fdeb017956c894eba079e6a630f5cfec256256dc05616ad89f1eb825abef459633382604051808373ffffffffffffffffffffffffffffffffffffffff1673ffffffffffffffffffffffffffffffffffffffff16815260200180602001828103825283818151815260200191508051906020019080838360005b838110156101a657808201518184015260208101905061018b565b50505050905090810190601f1680156101d35780820380516001836020036101000a031916815260200191505b50935050505060405180910390a150565b6000339050905600a165627a7a7230582067450a0b783d4ac946c73f9ad5bd4bb2ec6d2ea0a2759b464534b41b6d3a28b50029",
  "source": "pragma solidity ^0.4.2;\n\ncontract Login {\n  \n    event LoginAttempt(address sender, string challenge);\n\n    function login(string challenge) {\n        LoginAttempt(msg.sender, challenge);\n    }\n\n    function whoami() constant returns (address) {\n        return msg.sender;\n    }\n\n}",
  "sourcePath": "/home/shubhankargupta/Documents/BCT/LoginSystem/solidity/contracts/Login.sol",
  "compiler": {
    "name": "solc",
    "version": "0.4.26+commit.4563c3fc.Emscripten.clang"
  },
  "schemaVersion": "3.4.2",
  "updatedAt": "2021-09-24T13:09:53.300Z",
  "networkType": "ethereum",
  "devdoc": {
    "methods": {}
  },
  "userdoc": {
    "methods": {}
  }
}